{"abi":[{"type":"constructor","inputs":[],"stateMutability":"nonpayable"},{"type":"function","name":"MAX_QUERY_LIMIT","inputs":[],"outputs":[{"name":"","type":"uint256","internalType":"uint256"}],"stateMutability":"view"},{"type":"function","name":"agentCount","inputs":[],"outputs":[{"name":"","type":"uint256","internalType":"uint256"}],"stateMutability":"view"},{"type":"function","name":"agents","inputs":[{"name":"","type":"uint256","internalType":"uint256"}],"outputs":[{"name":"wallet","type":"address","internalType":"address"},{"name":"name","type":"string","internalType":"string"},{"name":"serviceType","type":"string","internalType":"string"},{"name":"pricePerTask","type":"uint256","internalType":"uint256"},{"name":"reputation","type":"uint256","internalType":"uint256"},{"name":"tasksCompleted","type":"uint256","internalType":"uint256"},{"name":"active","type":"bool","internalType":"bool"}],"stateMutability":"view"},{"type":"function","name":"deregisterAgent","inputs":[],"outputs":[],"stateMutability":"nonpayable"},{"type":"function","name":"escrowContract","inputs":[],"outputs":[{"name":"","type":"address","internalType":"address"}],"stateMutability":"view"},{"type":"function","name":"getActiveAgentsPaginated","inputs":[{"name":"serviceType","type":"string","internalType":"string"},{"name":"offset","type":"uint256","internalType":"uint256"},{"name":"limit","type":"uint256","internalType":"uint256"}],"outputs":[{"name":"activeAgentIds","type":"uint256[]","internalType":"uint256[]"},{"name":"total","type":"uint256","internalType":"uint256"}],"stateMutability":"view"},{"type":"function","name":"getAgent","inputs":[{"name":"agentId","type":"uint256","internalType":"uint256"}],"outputs":[{"name":"","type":"tuple","internalType":"struct AgentRegistry.Agent","components":[{"name":"wallet","type":"address","internalType":"address"},{"name":"name","type":"string","internalType":"string"},{"name":"serviceType","type":"string","internalType":"string"},{"name":"pricePerTask","type":"uint256","internalType":"uint256"},{"name":"reputation","type":"uint256","internalType":"uint256"},{"name":"tasksCompleted","type":"uint256","internalType":"uint256"},{"name":"active","type":"bool","internalType":"bool"}]}],"stateMutability":"view"},{"type":"function","name":"getAgentIdByWallet","inputs":[{"name":"wallet","type":"address","internalType":"address"}],"outputs":[{"name":"","type":"uint256","internalType":"uint256"}],"stateMutability":"view"},{"type":"function","name":"getAgentsByService","inputs":[{"name":"serviceType","type":"string","internalType":"string"}],"outputs":[{"name":"","type":"uint256[]","internalType":"uint256[]"}],"stateMutability":"view"},{"type":"function","name":"getCheapestAgent","inputs":[{"name":"serviceType","type":"string","internalType":"string"}],"outputs":[{"name":"agentId","type":"uint256","internalType":"uint256"},{"name":"price","type":"uint256","internalType":"uint256"}],"stateMutability":"view"},{"type":"function","name":"owner","inputs":[],"outputs":[{"name":"","type":"address","internalType":"address"}],"stateMutability":"view"},{"type":"function","name":"recordTaskCompletion","inputs":[{"name":"agentId","type":"uint256","internalType":"uint256"}],"outputs":[],"stateMutability":"nonpayable"},{"type":"function","name":"registerAgent","inputs":[{"name":"name","type":"string","internalType":"string"},{"name":"serviceType","type":"string","internalType":"string"},{"name":"pricePerTask","type":"uint256","internalType":"uint256"}],"outputs":[{"name":"agentId","type":"uint256","internalType":"uint256"}],"stateMutability":"nonpayable"},{"type":"function","name":"serviceTypeToAgents","inputs":[{"name":"","type":"string","internalType":"string"},{"name":"","type":"uint256","internalType":"uint256"}],"outputs":[{"name":"","type":"uint256","internalType":"uint256"}],"stateMutability":"view"},{"type":"function","name":"setEscrowContract","inputs":[{"name":"_escrow","type":"address","internalType":"address"}],"outputs":[],"stateMutability":"nonpayable"},{"type":"function","name":"transferOwnership","inputs":[{"name":"newOwner","type":"address","internalType":"address"}],"outputs":[],"stateMutability":"nonpayable"},{"type":"function","name":"updateAgent","inputs":[{"name":"pricePerTask","type":"uint256","internalType":"uint256"},{"name":"active","type":"bool","internalType":"bool"}],"outputs":[],"stateMutability":"nonpayable"},{"type":"function","name":"walletToAgentId","inputs":[{"name":"","type":"address","internalType":"address"}],"outputs":[{"name":"","type":"uint256","internalType":"uint256"}],"stateMutability":"view"},{"type":"event","name":"AgentDeregistered","inputs":[{"name":"agentId","type":"uint256","indexed":true,"internalType":"uint256"},{"name":"wallet","type":"address","indexed":true,"internalType":"address"}],"anonymous":false},{"type":"event","name":"AgentRegistered","inputs":[{"name":"agentId","type":"uint256","indexed":true,"internalType":"uint256"},{"name":"wallet","type":"address","indexed":true,"internalType":"address"},{"name":"name","type":"string","indexed":false,"internalType":"string"},{"name":"serviceType","type":"string","indexed":false,"internalType":"string"},{"name":"price","type":"uint256","indexed":false,"internalType":"uint256"}],"anonymous":false},{"type":"event","name":"AgentUpdated","inputs":[{"name":"agentId","type":"uint256","indexed":true,"internalType":"uint256"},{"name":"newPrice","type":"uint256","indexed":false,"internalType":"uint256"},{"name":"active","type":"bool","indexed":false,"internalType":"bool"}],"anonymous":false},{"type":"event","name":"EscrowContractUpdated","inputs":[{"name":"oldEscrow","type":"address","indexed":true,"internalType":"address"},{"name":"newEscrow","type":"address","indexed":true,"internalType":"address"}],"anonymous":false},{"type":"event","name":"OwnershipTransferred","inputs":[{"name":"oldOwner","type":"address","indexed":true,"internalType":"address"},{"name":"newOwner","type":"address","indexed":true,"internalType":"address"}],"anonymous":false},{"type":"event","name":"ReputationUpdated","inputs":[{"name":"agentId","type":"uint256","indexed":true,"internalType":"uint256"},{"name":"newReputation","type":"uint256","indexed":false,"internalType":"uint256"}],"anonymous":false},{"type":"event","name":"TaskCompleted","inputs":[{"name":"agentId","type":"uint256","indexed":true,"internalType":"uint256"},{"name":"totalTasks","type":"uint256","indexed":false,"internalType":"uint256"}],"anonymous":false},{"type":"error","name":"AgentNotFound","inputs":[]},{"type":"error","name":"AlreadyRegistered","inputs":[]},{"type":"error","name":"NotAgentOwner","inputs":[]},{"type":"error","name":"OnlyEscrow","inputs":[]},{"type":"error","name":"OnlyOwner","inputs":[]},{"type":"error","name":"ZeroAddress","inputs":[]}],"bytecode":{"object":"0x6080604052348015600e575f5ffd5b50335f5f6101000a81548173ffffffffffffffffffffffffffffffffffffffff021916908373ffffffffffffffffffffffffffffffffffffffff1602179055506126008061005b5f395ff3fe608060405234801561000f575f5ffd5b5060043610610114575f3560e01c80639aaa663f116100a0578063cc9c05561161006f578063cc9c05561461030b578063da6b03bc1461033c578063e42a96e71461036c578063f2fde38b1461038a578063f42375b5146103a657610114565b80639aaa663f14610283578063a7253704146102b3578063b3fa7cb8146102bd578063b7dc1284146102ed57610114565b8063513856c8116100e7578063513856c8146101c657806364859216146101fc5780636b6581b41461021857806374fbf214146102345780638da5cb5b1461026557610114565b8063182b5aac146101185780631e5082381461014857806323beb3dd146101785780632de5aaf714610196575b5f5ffd5b610132600480360381019061012d9190611a64565b6103c2565b60405161013f9190611acd565b60405180910390f35b610162600480360381019061015d9190611b40565b610405565b60405161016f9190611acd565b60405180910390f35b61018061044b565b60405161018d9190611acd565b60405180910390f35b6101b060048036038101906101ab9190611b6b565b610450565b6040516101bd9190611cce565b60405180910390f35b6101e060048036038101906101db9190611b6b565b610627565b6040516101f39796959493929190611d54565b60405180910390f35b61021660048036038101906102119190611b6b565b61079c565b005b610232600480360381019061022d9190611df9565b61097a565b005b61024e60048036038101906102499190611e94565b610a6c565b60405161025c929190611fad565b60405180910390f35b61026d610d03565b60405161027a9190611fdb565b60405180910390f35b61029d60048036038101906102989190611ff4565b610d27565b6040516102aa919061203f565b60405180910390f35b6102bb610d9e565b005b6102d760048036038101906102d29190611b40565b610ecf565b6040516102e49190611acd565b60405180910390f35b6102f5610ee4565b6040516103029190611acd565b60405180910390f35b61032560048036038101906103209190611ff4565b610eea565b60405161033392919061205f565b60405180910390f35b61035660048036038101906103519190612086565b611210565b6040516103639190611acd565b60405180910390f35b610374611517565b6040516103819190611fdb565b60405180910390f35b6103a4600480360381019061039f9190611b40565b61153c565b005b6103c060048036038101906103bb9190611b40565b6116e7565b005b60058280516020810182018051848252602083016020850120818352809550505050505081815481106103f3575f80fd5b905f5260205f20015f91509150505481565b5f60045f8373ffffffffffffffffffffffffffffffffffffffff1673ffffffffffffffffffffffffffffffffffffffff1681526020019081526020015f20549050919050565b606481565b610458611894565b60035f8381526020019081526020015f206040518060e00160405290815f82015f9054906101000a900473ffffffffffffffffffffffffffffffffffffffff1673ffffffffffffffffffffffffffffffffffffffff1673ffffffffffffffffffffffffffffffffffffffff1681526020016001820180546104d890612144565b80601f016020809104026020016040519081016040528092919081815260200182805461050490612144565b801561054f5780601f106105265761010080835404028352916020019161054f565b820191905f5260205f20905b81548152906001019060200180831161053257829003601f168201915b5050505050815260200160028201805461056890612144565b80601f016020809104026020016040519081016040528092919081815260200182805461059490612144565b80156105df5780601f106105b6576101008083540402835291602001916105df565b820191905f5260205f20905b8154815290600101906020018083116105c257829003601f168201915b50505050508152602001600382015481526020016004820154815260200160058201548152602001600682015f9054906101000a900460ff1615151515815250509050919050565b6003602052805f5260405f205f91509050805f015f9054906101000a900473ffffffffffffffffffffffffffffffffffffffff169080600101805461066b90612144565b80601f016020809104026020016040519081016040528092919081815260200182805461069790612144565b80156106e25780601f106106b9576101008083540402835291602001916106e2565b820191905f5260205f20905b8154815290600101906020018083116106c557829003601f168201915b5050505050908060020180546106f790612144565b80601f016020809104026020016040519081016040528092919081815260200182805461072390612144565b801561076e5780601f106107455761010080835404028352916020019161076e565b820191905f5260205f20905b81548152906001019060200180831161075157829003601f168201915b505050505090806003015490806004015490806005015490806006015f9054906101000a900460ff16905087565b60015f9054906101000a900473ffffffffffffffffffffffffffffffffffffffff1673ffffffffffffffffffffffffffffffffffffffff163373ffffffffffffffffffffffffffffffffffffffff1614610822576040517f1a0831da00000000000000000000000000000000000000000000000000000000815260040160405180910390fd5b5f60035f8381526020019081526020015f2090505f73ffffffffffffffffffffffffffffffffffffffff16815f015f9054906101000a900473ffffffffffffffffffffffffffffffffffffffff1673ffffffffffffffffffffffffffffffffffffffff16036108bd576040517fe93ba22300000000000000000000000000000000000000000000000000000000815260040160405180910390fd5b806005015f8154809291906108d1906121a1565b919050555060c8816004015410156108ff576001816004015f8282546108f791906121e8565b925050819055505b817ff9c405f91e34dcd1dc136cf6992ada4a8c24a2803e0fab7546364c64dac7ba2b82600501546040516109339190611acd565b60405180910390a2817ea4f8488cd701f9a77136eb5c91d5e2edef3c38001ca7148525acf8a2626481826004015460405161096e9190611acd565b60405180910390a25050565b5f60045f3373ffffffffffffffffffffffffffffffffffffffff1673ffffffffffffffffffffffffffffffffffffffff1681526020019081526020015f205490505f81036109f4576040517fe93ba22300000000000000000000000000000000000000000000000000000000815260040160405180910390fd5b5f60035f8381526020019081526020015f20905083816003018190555082816006015f6101000a81548160ff021916908315150217905550817f624b6c4ec19cbcd2dd150d5d3dae55d1d060b22905f9d7714d710f42e490313e8585604051610a5e92919061221b565b60405180910390a250505050565b60605f5f60058787604051610a82929190612270565b9081526020016040518091039020805480602002602001604051908101604052809291908181526020018280548015610ad857602002820191905f5260205f20905b815481526020019060010190808311610ac4575b5050505050905080519150818510610b3b575f67ffffffffffffffff811115610b0457610b0361190d565b5b604051908082528060200260200182016040528015610b325781602001602082028036833780820191505090505b50925050610cfa565b5f828587610b4991906121e8565b11610b5f578486610b5a91906121e8565b610b61565b825b90505f8682610b709190612288565b90505f5f90505f8890505b8381108015610b8a5750606482105b15610bf15760035f868381518110610ba557610ba46122bb565b5b602002602001015181526020019081526020015f206006015f9054906101000a900460ff1615610bde578180610bda906121a1565b9250505b8080610be9906121a1565b915050610b7b565b508067ffffffffffffffff811115610c0c57610c0b61190d565b5b604051908082528060200260200182016040528015610c3a5781602001602082028036833780820191505090505b5095505f5f90505f8990505b8481108015610c5457508282105b15610cf35760035f878381518110610c6f57610c6e6122bb565b5b602002602001015181526020019081526020015f206006015f9054906101000a900460ff1615610ce057858181518110610cac57610cab6122bb565b5b6020026020010151888380610cc0906121a1565b945081518110610cd357610cd26122bb565b5b6020026020010181815250505b8080610ceb906121a1565b915050610c46565b5050505050505b94509492505050565b5f5f9054906101000a900473ffffffffffffffffffffffffffffffffffffffff1681565b606060058383604051610d3b929190612270565b9081526020016040518091039020805480602002602001604051908101604052809291908181526020018280548015610d9157602002820191905f5260205f20905b815481526020019060010190808311610d7d575b5050505050905092915050565b5f60045f3373ffffffffffffffffffffffffffffffffffffffff1673ffffffffffffffffffffffffffffffffffffffff1681526020019081526020015f205490505f8103610e18576040517fe93ba22300000000000000000000000000000000000000000000000000000000815260040160405180910390fd5b5f60035f8381526020019081526020015f2090505f816006015f6101000a81548160ff02191690831515021790555060045f3373ffffffffffffffffffffffffffffffffffffffff1673ffffffffffffffffffffffffffffffffffffffff1681526020019081526020015f205f90553373ffffffffffffffffffffffffffffffffffffffff16827f9d0a8c3cadd72a75f606e304ffc2aa26c01f743bd226eaa7c456b3e34acdfddd60405160405180910390a35050565b6004602052805f5260405f205f915090505481565b60025481565b5f5f5f60058585604051610eff929190612270565b9081526020016040518091039020805480602002602001604051908101604052809291908181526020018280548015610f5557602002820191905f5260205f20905b815481526020019060010190808311610f41575b505050505090505f7fffffffffffffffffffffffffffffffffffffffffffffffffffffffffffffffff90505f6064835111610f91578251610f94565b60645b90505f5f90505b818110156111d4575f60035f868481518110610fba57610fb96122bb565b5b602002602001015181526020019081526020015f206040518060e00160405290815f82015f9054906101000a900473ffffffffffffffffffffffffffffffffffffffff1673ffffffffffffffffffffffffffffffffffffffff1673ffffffffffffffffffffffffffffffffffffffff16815260200160018201805461103e90612144565b80601f016020809104026020016040519081016040528092919081815260200182805461106a90612144565b80156110b55780601f1061108c576101008083540402835291602001916110b5565b820191905f5260205f20905b81548152906001019060200180831161109857829003601f168201915b505050505081526020016002820180546110ce90612144565b80601f01602080910402602001604051908101604052809291908181526020018280546110fa90612144565b80156111455780601f1061111c57610100808354040283529160200191611145565b820191905f5260205f20905b81548152906001019060200180831161112857829003601f168201915b50505050508152602001600382015481526020016004820154815260200160058201548152602001600682015f9054906101000a900460ff16151515158152505090508060c00151801561119c5750838160600151105b156111c657806060015193508482815181106111bb576111ba6122bb565b5b602002602001015196505b508080600101915050610f9b565b507fffffffffffffffffffffffffffffffffffffffffffffffffffffffffffffffff82146112025781611204565b5f5b93505050509250929050565b5f5f60045f3373ffffffffffffffffffffffffffffffffffffffff1673ffffffffffffffffffffffffffffffffffffffff1681526020019081526020015f205414611287576040517f3a81d6fc00000000000000000000000000000000000000000000000000000000815260040160405180910390fd5b60025f8154611295906121a1565b91905081905590506040518060e001604052803373ffffffffffffffffffffffffffffffffffffffff16815260200187878080601f0160208091040260200160405190810160405280939291908181526020018383808284375f81840152601f19601f82011690508083019250505050505050815260200185858080601f0160208091040260200160405190810160405280939291908181526020018383808284375f81840152601f19601f820116905080830192505050505050508152602001838152602001606481526020015f81526020016001151581525060035f8381526020019081526020015f205f820151815f015f6101000a81548173ffffffffffffffffffffffffffffffffffffffff021916908373ffffffffffffffffffffffffffffffffffffffff16021790555060208201518160010190816113da9190612488565b5060408201518160020190816113f09190612488565b50606082015181600301556080820151816004015560a0820151816005015560c0820151816006015f6101000a81548160ff0219169083151502179055509050508060045f3373ffffffffffffffffffffffffffffffffffffffff1673ffffffffffffffffffffffffffffffffffffffff1681526020019081526020015f208190555060058484604051611485929190612270565b908152602001604051809103902081908060018154018082558091505060019003905f5260205f20015f90919091909150553373ffffffffffffffffffffffffffffffffffffffff16817fa5a9bc4ac6f13b606301e7d4d7c1391c2e58049a166445b3709189e91220db328888888888604051611506959493929190612583565b60405180910390a395945050505050565b60015f9054906101000a900473ffffffffffffffffffffffffffffffffffffffff1681565b5f5f9054906101000a900473ffffffffffffffffffffffffffffffffffffffff1673ffffffffffffffffffffffffffffffffffffffff163373ffffffffffffffffffffffffffffffffffffffff16146115c1576040517f5fc483c500000000000000000000000000000000000000000000000000000000815260040160405180910390fd5b5f73ffffffffffffffffffffffffffffffffffffffff168173ffffffffffffffffffffffffffffffffffffffff1603611626576040517fd92e233d00000000000000000000000000000000000000000000000000000000815260040160405180910390fd5b5f5f5f9054906101000a900473ffffffffffffffffffffffffffffffffffffffff169050815f5f6101000a81548173ffffffffffffffffffffffffffffffffffffffff021916908373ffffffffffffffffffffffffffffffffffffffff1602179055508173ffffffffffffffffffffffffffffffffffffffff168173ffffffffffffffffffffffffffffffffffffffff167f8be0079c531659141344cd1fd0a4f28419497f9722a3daafe3b4186f6b6457e060405160405180910390a35050565b5f5f9054906101000a900473ffffffffffffffffffffffffffffffffffffffff1673ffffffffffffffffffffffffffffffffffffffff163373ffffffffffffffffffffffffffffffffffffffff161461176c576040517f5fc483c500000000000000000000000000000000000000000000000000000000815260040160405180910390fd5b5f73ffffffffffffffffffffffffffffffffffffffff168173ffffffffffffffffffffffffffffffffffffffff16036117d1576040517fd92e233d00000000000000000000000000000000000000000000000000000000815260040160405180910390fd5b5f60015f9054906101000a900473ffffffffffffffffffffffffffffffffffffffff1690508160015f6101000a81548173ffffffffffffffffffffffffffffffffffffffff021916908373ffffffffffffffffffffffffffffffffffffffff1602179055508173ffffffffffffffffffffffffffffffffffffffff168173ffffffffffffffffffffffffffffffffffffffff167fb4314795ba509f4f6e4f54698ebcf794fed2c1ba8199f5d0024b3f792eb606d160405160405180910390a35050565b6040518060e001604052805f73ffffffffffffffffffffffffffffffffffffffff16815260200160608152602001606081526020015f81526020015f81526020015f81526020015f151581525090565b5f604051905090565b5f5ffd5b5f5ffd5b5f5ffd5b5f5ffd5b5f601f19601f8301169050919050565b7f4e487b71000000000000000000000000000000000000000000000000000000005f52604160045260245ffd5b611943826118fd565b810181811067ffffffffffffffff821117156119625761196161190d565b5b80604052505050565b5f6119746118e4565b9050611980828261193a565b919050565b5f67ffffffffffffffff82111561199f5761199e61190d565b5b6119a8826118fd565b9050602081019050919050565b828183375f83830152505050565b5f6119d56119d084611985565b61196b565b9050828152602081018484840111156119f1576119f06118f9565b5b6119fc8482856119b5565b509392505050565b5f82601f830112611a1857611a176118f5565b5b8135611a288482602086016119c3565b91505092915050565b5f819050919050565b611a4381611a31565b8114611a4d575f5ffd5b50565b5f81359050611a5e81611a3a565b92915050565b5f5f60408385031215611a7a57611a796118ed565b5b5f83013567ffffffffffffffff811115611a9757611a966118f1565b5b611aa385828601611a04565b9250506020611ab485828601611a50565b9150509250929050565b611ac781611a31565b82525050565b5f602082019050611ae05f830184611abe565b92915050565b5f73ffffffffffffffffffffffffffffffffffffffff82169050919050565b5f611b0f82611ae6565b9050919050565b611b1f81611b05565b8114611b29575f5ffd5b50565b5f81359050611b3a81611b16565b92915050565b5f60208284031215611b5557611b546118ed565b5b5f611b6284828501611b2c565b91505092915050565b5f60208284031215611b8057611b7f6118ed565b5b5f611b8d84828501611a50565b91505092915050565b611b9f81611b05565b82525050565b5f81519050919050565b5f82825260208201905092915050565b8281835e5f83830152505050565b5f611bd782611ba5565b611be18185611baf565b9350611bf1818560208601611bbf565b611bfa816118fd565b840191505092915050565b611c0e81611a31565b82525050565b5f8115159050919050565b611c2881611c14565b82525050565b5f60e083015f830151611c435f860182611b96565b5060208301518482036020860152611c5b8282611bcd565b91505060408301518482036040860152611c758282611bcd565b9150506060830151611c8a6060860182611c05565b506080830151611c9d6080860182611c05565b5060a0830151611cb060a0860182611c05565b5060c0830151611cc360c0860182611c1f565b508091505092915050565b5f6020820190508181035f830152611ce68184611c2e565b905092915050565b611cf781611b05565b82525050565b5f82825260208201905092915050565b5f611d1782611ba5565b611d218185611cfd565b9350611d31818560208601611bbf565b611d3a816118fd565b840191505092915050565b611d4e81611c14565b82525050565b5f60e082019050611d675f83018a611cee565b8181036020830152611d798189611d0d565b90508181036040830152611d8d8188611d0d565b9050611d9c6060830187611abe565b611da96080830186611abe565b611db660a0830185611abe565b611dc360c0830184611d45565b98975050505050505050565b611dd881611c14565b8114611de2575f5ffd5b50565b5f81359050611df381611dcf565b92915050565b5f5f60408385031215611e0f57611e0e6118ed565b5b5f611e1c85828601611a50565b9250506020611e2d85828601611de5565b9150509250929050565b5f5ffd5b5f5ffd5b5f5f83601f840112611e5457611e536118f5565b5b8235905067ffffffffffffffff811115611e7157611e70611e37565b5b602083019150836001820283011115611e8d57611e8c611e3b565b5b9250929050565b5f5f5f5f60608587031215611eac57611eab6118ed565b5b5f85013567ffffffffffffffff811115611ec957611ec86118f1565b5b611ed587828801611e3f565b94509450506020611ee887828801611a50565b9250506040611ef987828801611a50565b91505092959194509250565b5f81519050919050565b5f82825260208201905092915050565b5f819050602082019050919050565b5f611f398383611c05565b60208301905092915050565b5f602082019050919050565b5f611f5b82611f05565b611f658185611f0f565b9350611f7083611f1f565b805f5b83811015611fa0578151611f878882611f2e565b9750611f9283611f45565b925050600181019050611f73565b5085935050505092915050565b5f6040820190508181035f830152611fc58185611f51565b9050611fd46020830184611abe565b9392505050565b5f602082019050611fee5f830184611cee565b92915050565b5f5f6020838503121561200a576120096118ed565b5b5f83013567ffffffffffffffff811115612027576120266118f1565b5b61203385828601611e3f565b92509250509250929050565b5f6020820190508181035f8301526120578184611f51565b905092915050565b5f6040820190506120725f830185611abe565b61207f6020830184611abe565b9392505050565b5f5f5f5f5f6060868803121561209f5761209e6118ed565b5b5f86013567ffffffffffffffff8111156120bc576120bb6118f1565b5b6120c888828901611e3f565b9550955050602086013567ffffffffffffffff8111156120eb576120ea6118f1565b5b6120f788828901611e3f565b9350935050604061210a88828901611a50565b9150509295509295909350565b7f4e487b71000000000000000000000000000000000000000000000000000000005f52602260045260245ffd5b5f600282049050600182168061215b57607f821691505b60208210810361216e5761216d612117565b5b50919050565b7f4e487b71000000000000000000000000000000000000000000000000000000005f52601160045260245ffd5b5f6121ab82611a31565b91507fffffffffffffffffffffffffffffffffffffffffffffffffffffffffffffffff82036121dd576121dc612174565b5b600182019050919050565b5f6121f282611a31565b91506121fd83611a31565b925082820190508082111561221557612214612174565b5b92915050565b5f60408201905061222e5f830185611abe565b61223b6020830184611d45565b9392505050565b5f81905092915050565b5f6122578385612242565b93506122648385846119b5565b82840190509392505050565b5f61227c82848661224c565b91508190509392505050565b5f61229282611a31565b915061229d83611a31565b92508282039050818111156122b5576122b4612174565b5b92915050565b7f4e487b71000000000000000000000000000000000000000000000000000000005f52603260045260245ffd5b5f819050815f5260205f209050919050565b5f6020601f8301049050919050565b5f82821b905092915050565b5f600883026123447fffffffffffffffffffffffffffffffffffffffffffffffffffffffffffffffff82612309565b61234e8683612309565b95508019841693508086168417925050509392505050565b5f819050919050565b5f61238961238461237f84611a31565b612366565b611a31565b9050919050565b5f819050919050565b6123a28361236f565b6123b66123ae82612390565b848454612315565b825550505050565b5f5f905090565b6123cd6123be565b6123d8818484612399565b505050565b5b818110156123fb576123f05f826123c5565b6001810190506123de565b5050565b601f82111561244057612411816122e8565b61241a846122fa565b81016020851015612429578190505b61243d612435856122fa565b8301826123dd565b50505b505050565b5f82821c905092915050565b5f6124605f1984600802612445565b1980831691505092915050565b5f6124788383612451565b9150826002028217905092915050565b61249182611ba5565b67ffffffffffffffff8111156124aa576124a961190d565b5b6124b48254612144565b6124bf8282856123ff565b5f60209050601f8311600181146124f0575f84156124de578287015190505b6124e8858261246d565b86555061254f565b601f1984166124fe866122e8565b5f5b8281101561252557848901518255600182019150602085019450602081019050612500565b86831015612542578489015161253e601f891682612451565b8355505b6001600288020188555050505b505050505050565b5f6125628385611cfd565b935061256f8385846119b5565b612578836118fd565b840190509392505050565b5f6060820190508181035f83015261259c818789612557565b905081810360208301526125b1818587612557565b90506125c06040830184611abe565b969550505050505056fea2646970667358221220c7cabe58ef080cf1f26ed1f7b4834ab99d8e9ed3956088bb15187ffcc47fa60964736f6c634300081b0033","linkReferences":{}},"methodIdentifiers":{"MAX_QUERY_LIMIT()":"23beb3dd","agentCount()":"b7dc1284","agents(uint256)":"513856c8","deregisterAgent()":"a7253704","escrowContract()":"e42a96e7","getActiveAgentsPaginated(string,uint256,uint256)":"74fbf214","getAgent(uint256)":"2de5aaf7","getAgentIdByWallet(address)":"1e508238","getAgentsByService(string)":"9aaa663f","getCheapestAgent(string)":"cc9c0556","owner()":"8da5cb5b","recordTaskCompletion(uint256)":"64859216","registerAgent(string,string,uint256)":"da6b03bc","serviceTypeToAgents(string,uint256)":"182b5aac","setEscrowContract(address)":"f42375b5","transferOwnership(address)":"f2fde38b","updateAgent(uint256,bool)":"6b6581b4","walletToAgentId(address)":"b3fa7cb8"},"id":22}