{"abi":[{"type":"constructor","inputs":[],"stateMutability":"nonpayable"},{"type":"fallback","stateMutability":"payable"},{"type":"receive","stateMutability":"payable"},{"type":"function","name":"DEFAULT_TIMEOUT","inputs":[],"outputs":[{"name":"","type":"uint256","internalType":"uint256"}],"stateMutability":"view"},{"type":"function","name":"MAX_TIMEOUT","inputs":[],"outputs":[{"name":"","type":"uint256","internalType":"uint256"}],"stateMutability":"view"},{"type":"function","name":"agentRegistry","inputs":[],"outputs":[{"name":"","type":"address","internalType":"contract IAgentRegistry"}],"stateMutability":"view"},{"type":"function","name":"createEscrow","inputs":[{"name":"seller","type":"address","internalType":"address"},{"name":"taskHash","type":"bytes32","internalType":"bytes32"},{"name":"sellerAgentId","type":"uint256","internalType":"uint256"}],"outputs":[{"name":"escrowId","type":"uint256","internalType":"uint256"}],"stateMutability":"payable"},{"type":"function","name":"createEscrowWithTimeout","inputs":[{"name":"seller","type":"address","internalType":"address"},{"name":"taskHash","type":"bytes32","internalType":"bytes32"},{"name":"sellerAgentId","type":"uint256","internalType":"uint256"},{"name":"timeout","type":"uint256","internalType":"uint256"}],"outputs":[{"name":"escrowId","type":"uint256","internalType":"uint256"}],"stateMutability":"payable"},{"type":"function","name":"dispute","inputs":[{"name":"escrowId","type":"uint256","internalType":"uint256"}],"outputs":[],"stateMutability":"nonpayable"},{"type":"function","name":"escrowCount","inputs":[],"outputs":[{"name":"","type":"uint256","internalType":"uint256"}],"stateMutability":"view"},{"type":"function","name":"escrows","inputs":[{"name":"","type":"uint256","internalType":"uint256"}],"outputs":[{"name":"buyer","type":"address","internalType":"address"},{"name":"seller","type":"address","internalType":"address"},{"name":"amount","type":"uint256","internalType":"uint256"},{"name":"taskHash","type":"bytes32","internalType":"bytes32"},{"name":"deadline","type":"uint256","internalType":"uint256"},{"name":"sellerAgentId","type":"uint256","internalType":"uint256"},{"name":"status","type":"uint8","internalType":"enum Escrow.EscrowStatus"}],"stateMutability":"view"},{"type":"function","name":"exists","inputs":[{"name":"escrowId","type":"uint256","internalType":"uint256"}],"outputs":[{"name":"","type":"bool","internalType":"bool"}],"stateMutability":"view"},{"type":"function","name":"getEscrow","inputs":[{"name":"escrowId","type":"uint256","internalType":"uint256"}],"outputs":[{"name":"","type":"tuple","internalType":"struct Escrow.EscrowData","components":[{"name":"buyer","type":"address","internalType":"address"},{"name":"seller","type":"address","internalType":"address"},{"name":"amount","type":"uint256","internalType":"uint256"},{"name":"taskHash","type":"bytes32","internalType":"bytes32"},{"name":"deadline","type":"uint256","internalType":"uint256"},{"name":"sellerAgentId","type":"uint256","internalType":"uint256"},{"name":"status","type":"uint8","internalType":"enum Escrow.EscrowStatus"}]}],"stateMutability":"view"},{"type":"function","name":"isExpired","inputs":[{"name":"escrowId","type":"uint256","internalType":"uint256"}],"outputs":[{"name":"","type":"bool","internalType":"bool"}],"stateMutability":"view"},{"type":"function","name":"owner","inputs":[],"outputs":[{"name":"","type":"address","internalType":"address"}],"stateMutability":"view"},{"type":"function","name":"refund","inputs":[{"name":"escrowId","type":"uint256","internalType":"uint256"}],"outputs":[],"stateMutability":"nonpayable"},{"type":"function","name":"release","inputs":[{"name":"escrowId","type":"uint256","internalType":"uint256"}],"outputs":[],"stateMutability":"nonpayable"},{"type":"function","name":"setAgentRegistry","inputs":[{"name":"_registry","type":"address","internalType":"address"}],"outputs":[],"stateMutability":"nonpayable"},{"type":"event","name":"AgentRegistryUpdated","inputs":[{"name":"oldRegistry","type":"address","indexed":true,"internalType":"address"},{"name":"newRegistry","type":"address","indexed":true,"internalType":"address"}],"anonymous":false},{"type":"event","name":"EscrowCreated","inputs":[{"name":"escrowId","type":"uint256","indexed":true,"internalType":"uint256"},{"name":"buyer","type":"address","indexed":true,"internalType":"address"},{"name":"seller","type":"address","indexed":true,"internalType":"address"},{"name":"amount","type":"uint256","indexed":false,"internalType":"uint256"},{"name":"taskHash","type":"bytes32","indexed":false,"internalType":"bytes32"}],"anonymous":false},{"type":"event","name":"EscrowDisputed","inputs":[{"name":"escrowId","type":"uint256","indexed":true,"internalType":"uint256"},{"name":"disputer","type":"address","indexed":true,"internalType":"address"}],"anonymous":false},{"type":"event","name":"EscrowRefunded","inputs":[{"name":"escrowId","type":"uint256","indexed":true,"internalType":"uint256"},{"name":"buyer","type":"address","indexed":true,"internalType":"address"},{"name":"amount","type":"uint256","indexed":false,"internalType":"uint256"}],"anonymous":false},{"type":"event","name":"EscrowReleased","inputs":[{"name":"escrowId","type":"uint256","indexed":true,"internalType":"uint256"},{"name":"seller","type":"address","indexed":true,"internalType":"address"},{"name":"amount","type":"uint256","indexed":false,"internalType":"uint256"}],"anonymous":false},{"type":"error","name":"DeadlineNotReached","inputs":[]},{"type":"error","name":"EscrowNotLocked","inputs":[]},{"type":"error","name":"InvalidEscrow","inputs":[]},{"type":"error","name":"InvalidTimeout","inputs":[]},{"type":"error","name":"NotBuyer","inputs":[]},{"type":"error","name":"NotBuyerOrSeller","inputs":[]},{"type":"error","name":"OnlyOwner","inputs":[]},{"type":"error","name":"ReentrancyGuardReentrantCall","inputs":[]},{"type":"error","name":"TransferFailed","inputs":[]},{"type":"error","name":"ZeroAddress","inputs":[]}],"bytecode":{"object":"0x6080604052348015600e575f5ffd5b5060015f819055503360015f6101000a81548173ffffffffffffffffffffffffffffffffffffffff021916908373ffffffffffffffffffffffffffffffffffffffff160217905550611dea806100635f395ff3fe6080604052600436106100eb575f3560e01c806376aaedc7116100895780639add92e4116100585780639add92e41461035c578063c4f8adeb14610386578063d9548e53146103b6578063de38eb3a146103f257610122565b806376aaedc71461029e5780637d19e596146102ce57806386d6282c1461030a5780638da5cb5b1461033257610122565b806328342ecf116100c557806328342ecf146101e857806337bdc99b146102105780634f558e7914610238578063675ac67a1461027457610122565b8063012f52ee146101545780630d1cfcae14610196578063278ecde1146101c057610122565b36610122576040517fc4c3834b00000000000000000000000000000000000000000000000000000000815260040160405180910390fd5b6040517fc4c3834b00000000000000000000000000000000000000000000000000000000815260040160405180910390fd5b34801561015f575f5ffd5b5061017a60048036038101906101759190611847565b61041c565b60405161018d979695949392919061194b565b60405180910390f35b3480156101a1575f5ffd5b506101aa6104a4565b6040516101b79190611a13565b60405180910390f35b3480156101cb575f5ffd5b506101e660048036038101906101e19190611847565b6104c9565b005b3480156101f3575f5ffd5b5061020e60048036038101906102099190611a56565b610839565b005b34801561021b575f5ffd5b5061023660048036038101906102319190611847565b6109e7565b005b348015610243575f5ffd5b5061025e60048036038101906102599190611847565b610db0565b60405161026b9190611a9b565b60405180910390f35b34801561027f575f5ffd5b50610288610e00565b6040516102959190611ab4565b60405180910390f35b6102b860048036038101906102b39190611af7565b610e06565b6040516102c59190611ab4565b60405180910390f35b3480156102d9575f5ffd5b506102f460048036038101906102ef9190611847565b6110e6565b6040516103019190611c23565b60405180910390f35b348015610315575f5ffd5b50610330600480360381019061032b9190611847565b61121c565b005b34801561033d575f5ffd5b50610346611463565b6040516103539190611c3c565b60405180910390f35b348015610367575f5ffd5b50610370611488565b60405161037d9190611ab4565b60405180910390f35b6103a0600480360381019061039b9190611c55565b61148e565b6040516103ad9190611ab4565b60405180910390f35b3480156103c1575f5ffd5b506103dc60048036038101906103d79190611847565b611728565b6040516103e99190611a9b565b60405180910390f35b3480156103fd575f5ffd5b50610406611748565b6040516104139190611ab4565b60405180910390f35b6004602052805f5260405f205f91509050805f015f9054906101000a900473ffffffffffffffffffffffffffffffffffffffff1690806001015f9054906101000a900473ffffffffffffffffffffffffffffffffffffffff1690806002015490806003015490806004015490806005015490806006015f9054906101000a900460ff16905087565b60025f9054906101000a900473ffffffffffffffffffffffffffffffffffffffff1681565b6104d161174f565b5f60045f8381526020019081526020015f2090505f60048111156104f8576104f76118d8565b5b816006015f9054906101000a900460ff16600481111561051b5761051a6118d8565b5b03610552576040517fc4c3834b00000000000000000000000000000000000000000000000000000000815260040160405180910390fd5b60016004811115610566576105656118d8565b5b816006015f9054906101000a900460ff166004811115610589576105886118d8565b5b146105c0576040517fe0267d5700000000000000000000000000000000000000000000000000000000815260040160405180910390fd5b805f015f9054906101000a900473ffffffffffffffffffffffffffffffffffffffff1673ffffffffffffffffffffffffffffffffffffffff163373ffffffffffffffffffffffffffffffffffffffff161415801561066d5750806001015f9054906101000a900473ffffffffffffffffffffffffffffffffffffffff1673ffffffffffffffffffffffffffffffffffffffff163373ffffffffffffffffffffffffffffffffffffffff1614155b156106a4576040517fde4622b200000000000000000000000000000000000000000000000000000000815260040160405180910390fd5b80600401544210156106e2576040517f66ec4ee600000000000000000000000000000000000000000000000000000000815260040160405180910390fd5b6003816006015f6101000a81548160ff02191690836004811115610709576107086118d8565b5b02179055505f816002015490505f825f015f9054906101000a900473ffffffffffffffffffffffffffffffffffffffff1690505f8173ffffffffffffffffffffffffffffffffffffffff168360405161076190611cd2565b5f6040518083038185875af1925050503d805f811461079b576040519150601f19603f3d011682016040523d82523d5f602084013e6107a0565b606091505b50509050806107db576040517f90b8ec1800000000000000000000000000000000000000000000000000000000815260040160405180910390fd5b8173ffffffffffffffffffffffffffffffffffffffff16857feac97bc1917fcedc984e3d0671d4e83b359890323d5d1c2de32b28d17c356ced856040516108229190611ab4565b60405180910390a350505050610836611793565b50565b60015f9054906101000a900473ffffffffffffffffffffffffffffffffffffffff1673ffffffffffffffffffffffffffffffffffffffff163373ffffffffffffffffffffffffffffffffffffffff16146108bf576040517f5fc483c500000000000000000000000000000000000000000000000000000000815260040160405180910390fd5b5f73ffffffffffffffffffffffffffffffffffffffff168173ffffffffffffffffffffffffffffffffffffffff1603610924576040517fd92e233d00000000000000000000000000000000000000000000000000000000815260040160405180910390fd5b5f60025f9054906101000a900473ffffffffffffffffffffffffffffffffffffffff1690508160025f6101000a81548173ffffffffffffffffffffffffffffffffffffffff021916908373ffffffffffffffffffffffffffffffffffffffff1602179055508173ffffffffffffffffffffffffffffffffffffffff168173ffffffffffffffffffffffffffffffffffffffff167f29d43d615aa13e2afae5605639201aa6571c7d1ec3bec3eb4a33605f8d0db26460405160405180910390a35050565b6109ef61174f565b5f60045f8381526020019081526020015f2090505f6004811115610a1657610a156118d8565b5b816006015f9054906101000a900460ff166004811115610a3957610a386118d8565b5b03610a70576040517fc4c3834b00000000000000000000000000000000000000000000000000000000815260040160405180910390fd5b60016004811115610a8457610a836118d8565b5b816006015f9054906101000a900460ff166004811115610aa757610aa66118d8565b5b14610ade576040517fe0267d5700000000000000000000000000000000000000000000000000000000815260040160405180910390fd5b805f015f9054906101000a900473ffffffffffffffffffffffffffffffffffffffff1673ffffffffffffffffffffffffffffffffffffffff163373ffffffffffffffffffffffffffffffffffffffff1614610b65576040517f472e017e00000000000000000000000000000000000000000000000000000000815260040160405180910390fd5b6002816006015f6101000a81548160ff02191690836004811115610b8c57610b8b6118d8565b5b02179055505f816002015490505f826001015f9054906101000a900473ffffffffffffffffffffffffffffffffffffffff1690505f836005015490505f73ffffffffffffffffffffffffffffffffffffffff1660025f9054906101000a900473ffffffffffffffffffffffffffffffffffffffff1673ffffffffffffffffffffffffffffffffffffffff1614158015610c2557505f8114155b15610cb25760025f9054906101000a900473ffffffffffffffffffffffffffffffffffffffff1673ffffffffffffffffffffffffffffffffffffffff166364859216826040518263ffffffff1660e01b8152600401610c849190611ab4565b5f604051808303815f87803b158015610c9b575f5ffd5b505af1158015610cad573d5f5f3e3d5ffd5b505050505b5f8273ffffffffffffffffffffffffffffffffffffffff1684604051610cd790611cd2565b5f6040518083038185875af1925050503d805f8114610d11576040519150601f19603f3d011682016040523d82523d5f602084013e610d16565b606091505b5050905080610d51576040517f90b8ec1800000000000000000000000000000000000000000000000000000000815260040160405180910390fd5b8273ffffffffffffffffffffffffffffffffffffffff16867f6244ed823ca6be0f11bc890c3fafcf3c29cb23420c14243642e930b5e07e6d0a86604051610d989190611ab4565b60405180910390a35050505050610dad611793565b50565b5f5f6004811115610dc457610dc36118d8565b5b60045f8481526020019081526020015f206006015f9054906101000a900460ff166004811115610df757610df66118d8565b5b14159050919050565b60035481565b5f5f3403610e40576040517fc4c3834b00000000000000000000000000000000000000000000000000000000815260040160405180910390fd5b5f73ffffffffffffffffffffffffffffffffffffffff168573ffffffffffffffffffffffffffffffffffffffff1603610ea5576040517fd92e233d00000000000000000000000000000000000000000000000000000000815260040160405180910390fd5b5f821480610eb5575062093a8082115b15610eec576040517f7fee1bc400000000000000000000000000000000000000000000000000000000815260040160405180910390fd5b60035f815480929190610efe90611d13565b9190505590506040518060e001604052803373ffffffffffffffffffffffffffffffffffffffff1681526020018673ffffffffffffffffffffffffffffffffffffffff1681526020013481526020018581526020018342610f5f9190611d5a565b815260200184815260200160016004811115610f7e57610f7d6118d8565b5b81525060045f8381526020019081526020015f205f820151815f015f6101000a81548173ffffffffffffffffffffffffffffffffffffffff021916908373ffffffffffffffffffffffffffffffffffffffff1602179055506020820151816001015f6101000a81548173ffffffffffffffffffffffffffffffffffffffff021916908373ffffffffffffffffffffffffffffffffffffffff16021790555060408201518160020155606082015181600301556080820151816004015560a0820151816005015560c0820151816006015f6101000a81548160ff0219169083600481111561106e5761106d6118d8565b5b02179055509050508473ffffffffffffffffffffffffffffffffffffffff163373ffffffffffffffffffffffffffffffffffffffff16827fd32a8e6ee4eaa7ae887d4659a3212bb80cc3691c898c8eae123745080a3dfcd134886040516110d6929190611d8d565b60405180910390a4949350505050565b6110ee61179c565b60045f8381526020019081526020015f206040518060e00160405290815f82015f9054906101000a900473ffffffffffffffffffffffffffffffffffffffff1673ffffffffffffffffffffffffffffffffffffffff1673ffffffffffffffffffffffffffffffffffffffff168152602001600182015f9054906101000a900473ffffffffffffffffffffffffffffffffffffffff1673ffffffffffffffffffffffffffffffffffffffff1673ffffffffffffffffffffffffffffffffffffffff16815260200160028201548152602001600382015481526020016004820154815260200160058201548152602001600682015f9054906101000a900460ff1660048111156111ff576111fe6118d8565b5b6004811115611211576112106118d8565b5b815250509050919050565b5f60045f8381526020019081526020015f2090505f6004811115611243576112426118d8565b5b816006015f9054906101000a900460ff166004811115611266576112656118d8565b5b0361129d576040517fc4c3834b00000000000000000000000000000000000000000000000000000000815260040160405180910390fd5b600160048111156112b1576112b06118d8565b5b816006015f9054906101000a900460ff1660048111156112d4576112d36118d8565b5b1461130b576040517fe0267d5700000000000000000000000000000000000000000000000000000000815260040160405180910390fd5b805f015f9054906101000a900473ffffffffffffffffffffffffffffffffffffffff1673ffffffffffffffffffffffffffffffffffffffff163373ffffffffffffffffffffffffffffffffffffffff16141580156113b85750806001015f9054906101000a900473ffffffffffffffffffffffffffffffffffffffff1673ffffffffffffffffffffffffffffffffffffffff163373ffffffffffffffffffffffffffffffffffffffff1614155b156113ef576040517fde4622b200000000000000000000000000000000000000000000000000000000815260040160405180910390fd5b6004816006015f6101000a81548160ff02191690836004811115611416576114156118d8565b5b02179055503373ffffffffffffffffffffffffffffffffffffffff16827fc25e2b14e82d9713d1570e77d6549051cc07e59f7f354600ce0e0c0f2aa29b0e60405160405180910390a35050565b60015f9054906101000a900473ffffffffffffffffffffffffffffffffffffffff1681565b61012c81565b5f5f34036114c8576040517fc4c3834b00000000000000000000000000000000000000000000000000000000815260040160405180910390fd5b5f73ffffffffffffffffffffffffffffffffffffffff168473ffffffffffffffffffffffffffffffffffffffff160361152d576040517fd92e233d00000000000000000000000000000000000000000000000000000000815260040160405180910390fd5b60035f81548092919061153f90611d13565b9190505590506040518060e001604052803373ffffffffffffffffffffffffffffffffffffffff1681526020018573ffffffffffffffffffffffffffffffffffffffff16815260200134815260200184815260200161012c426115a29190611d5a565b8152602001838152602001600160048111156115c1576115c06118d8565b5b81525060045f8381526020019081526020015f205f820151815f015f6101000a81548173ffffffffffffffffffffffffffffffffffffffff021916908373ffffffffffffffffffffffffffffffffffffffff1602179055506020820151816001015f6101000a81548173ffffffffffffffffffffffffffffffffffffffff021916908373ffffffffffffffffffffffffffffffffffffffff16021790555060408201518160020155606082015181600301556080820151816004015560a0820151816005015560c0820151816006015f6101000a81548160ff021916908360048111156116b1576116b06118d8565b5b02179055509050508373ffffffffffffffffffffffffffffffffffffffff163373ffffffffffffffffffffffffffffffffffffffff16827fd32a8e6ee4eaa7ae887d4659a3212bb80cc3691c898c8eae123745080a3dfcd13487604051611719929190611d8d565b60405180910390a49392505050565b5f60045f8381526020019081526020015f20600401544210159050919050565b62093a8081565b60025f540361178a576040517f3ee5aeb500000000000000000000000000000000000000000000000000000000815260040160405180910390fd5b60025f81905550565b60015f81905550565b6040518060e001604052805f73ffffffffffffffffffffffffffffffffffffffff1681526020015f73ffffffffffffffffffffffffffffffffffffffff1681526020015f81526020015f81526020015f81526020015f81526020015f600481111561180a576118096118d8565b5b81525090565b5f5ffd5b5f819050919050565b61182681611814565b8114611830575f5ffd5b50565b5f813590506118418161181d565b92915050565b5f6020828403121561185c5761185b611810565b5b5f61186984828501611833565b91505092915050565b5f73ffffffffffffffffffffffffffffffffffffffff82169050919050565b5f61189b82611872565b9050919050565b6118ab81611891565b82525050565b6118ba81611814565b82525050565b5f819050919050565b6118d2816118c0565b82525050565b7f4e487b71000000000000000000000000000000000000000000000000000000005f52602160045260245ffd5b60058110611916576119156118d8565b5b50565b5f81905061192682611905565b919050565b5f61193582611919565b9050919050565b6119458161192b565b82525050565b5f60e08201905061195e5f83018a6118a2565b61196b60208301896118a2565b61197860408301886118b1565b61198560608301876118c9565b61199260808301866118b1565b61199f60a08301856118b1565b6119ac60c083018461193c565b98975050505050505050565b5f819050919050565b5f6119db6119d66119d184611872565b6119b8565b611872565b9050919050565b5f6119ec826119c1565b9050919050565b5f6119fd826119e2565b9050919050565b611a0d816119f3565b82525050565b5f602082019050611a265f830184611a04565b92915050565b611a3581611891565b8114611a3f575f5ffd5b50565b5f81359050611a5081611a2c565b92915050565b5f60208284031215611a6b57611a6a611810565b5b5f611a7884828501611a42565b91505092915050565b5f8115159050919050565b611a9581611a81565b82525050565b5f602082019050611aae5f830184611a8c565b92915050565b5f602082019050611ac75f8301846118b1565b92915050565b611ad6816118c0565b8114611ae0575f5ffd5b50565b5f81359050611af181611acd565b92915050565b5f5f5f5f60808587031215611b0f57611b0e611810565b5b5f611b1c87828801611a42565b9450506020611b2d87828801611ae3565b9350506040611b3e87828801611833565b9250506060611b4f87828801611833565b91505092959194509250565b611b6481611891565b82525050565b611b7381611814565b82525050565b611b82816118c0565b82525050565b611b918161192b565b82525050565b60e082015f820151611bab5f850182611b5b565b506020820151611bbe6020850182611b5b565b506040820151611bd16040850182611b6a565b506060820151611be46060850182611b79565b506080820151611bf76080850182611b6a565b5060a0820151611c0a60a0850182611b6a565b5060c0820151611c1d60c0850182611b88565b50505050565b5f60e082019050611c365f830184611b97565b92915050565b5f602082019050611c4f5f8301846118a2565b92915050565b5f5f5f60608486031215611c6c57611c6b611810565b5b5f611c7986828701611a42565b9350506020611c8a86828701611ae3565b9250506040611c9b86828701611833565b9150509250925092565b5f81905092915050565b50565b5f611cbd5f83611ca5565b9150611cc882611caf565b5f82019050919050565b5f611cdc82611cb2565b9150819050919050565b7f4e487b71000000000000000000000000000000000000000000000000000000005f52601160045260245ffd5b5f611d1d82611814565b91507fffffffffffffffffffffffffffffffffffffffffffffffffffffffffffffffff8203611d4f57611d4e611ce6565b5b600182019050919050565b5f611d6482611814565b9150611d6f83611814565b9250828201905080821115611d8757611d86611ce6565b5b92915050565b5f604082019050611da05f8301856118b1565b611dad60208301846118c9565b939250505056fea26469706673582212202057b0a7e28c702a3589f0fd34cd3ea105f900fa6aa4516fdedaad92caa3f5e764736f6c634300081b0033","linkReferences":{}},"methodIdentifiers":{"DEFAULT_TIMEOUT()":"9add92e4","MAX_TIMEOUT()":"de38eb3a","agentRegistry()":"0d1cfcae","createEscrow(address,bytes32,uint256)":"c4f8adeb","createEscrowWithTimeout(address,bytes32,uint256,uint256)":"76aaedc7","dispute(uint256)":"86d6282c","escrowCount()":"675ac67a","escrows(uint256)":"012f52ee","exists(uint256)":"4f558e79","getEscrow(uint256)":"7d19e596","isExpired(uint256)":"d9548e53","owner()":"8da5cb5b","refund(uint256)":"278ecde1","release(uint256)":"37bdc99b","setAgentRegistry(address)":"28342ecf"},"id":24}