{"abi":[{"type":"constructor","inputs":[{"name":"_agent","type":"address","internalType":"address"},{"name":"_dailyLimit","type":"uint256","internalType":"uint256"}],"stateMutability":"nonpayable"},{"type":"receive","stateMutability":"payable"},{"type":"function","name":"agent","inputs":[],"outputs":[{"name":"","type":"address","internalType":"address"}],"stateMutability":"view"},{"type":"function","name":"allowlist","inputs":[{"name":"","type":"address","internalType":"address"}],"outputs":[{"name":"","type":"bool","internalType":"bool"}],"stateMutability":"view"},{"type":"function","name":"dailyLimit","inputs":[],"outputs":[{"name":"","type":"uint256","internalType":"uint256"}],"stateMutability":"view"},{"type":"function","name":"emergencyWithdraw","inputs":[{"name":"to","type":"address","internalType":"address"},{"name":"amount","type":"uint256","internalType":"uint256"}],"outputs":[],"stateMutability":"nonpayable"},{"type":"function","name":"frozen","inputs":[],"outputs":[{"name":"","type":"bool","internalType":"bool"}],"stateMutability":"view"},{"type":"function","name":"getBalance","inputs":[],"outputs":[{"name":"","type":"uint256","internalType":"uint256"}],"stateMutability":"view"},{"type":"function","name":"getRemainingDaily","inputs":[],"outputs":[{"name":"","type":"uint256","internalType":"uint256"}],"stateMutability":"view"},{"type":"function","name":"lastResetDay","inputs":[],"outputs":[{"name":"","type":"uint256","internalType":"uint256"}],"stateMutability":"view"},{"type":"function","name":"owner","inputs":[],"outputs":[{"name":"","type":"address","internalType":"address"}],"stateMutability":"view"},{"type":"function","name":"setAgent","inputs":[{"name":"_agent","type":"address","internalType":"address"}],"outputs":[],"stateMutability":"nonpayable"},{"type":"function","name":"setAllowlist","inputs":[{"name":"_target","type":"address","internalType":"address"},{"name":"_allowed","type":"bool","internalType":"bool"}],"outputs":[],"stateMutability":"nonpayable"},{"type":"function","name":"setDailyLimit","inputs":[{"name":"_limit","type":"uint256","internalType":"uint256"}],"outputs":[],"stateMutability":"nonpayable"},{"type":"function","name":"setFrozen","inputs":[{"name":"_frozen","type":"bool","internalType":"bool"}],"outputs":[],"stateMutability":"nonpayable"},{"type":"function","name":"spentToday","inputs":[],"outputs":[{"name":"","type":"uint256","internalType":"uint256"}],"stateMutability":"view"},{"type":"function","name":"transferOwnership","inputs":[{"name":"newOwner","type":"address","internalType":"address"}],"outputs":[],"stateMutability":"nonpayable"},{"type":"function","name":"withdraw","inputs":[{"name":"to","type":"address","internalType":"address"},{"name":"amount","type":"uint256","internalType":"uint256"}],"outputs":[],"stateMutability":"nonpayable"},{"type":"event","name":"AgentUpdated","inputs":[{"name":"newAgent","type":"address","indexed":true,"internalType":"address"}],"anonymous":false},{"type":"event","name":"AllowlistUpdated","inputs":[{"name":"target","type":"address","indexed":true,"internalType":"address"},{"name":"allowed","type":"bool","indexed":false,"internalType":"bool"}],"anonymous":false},{"type":"event","name":"Deposit","inputs":[{"name":"from","type":"address","indexed":true,"internalType":"address"},{"name":"amount","type":"uint256","indexed":false,"internalType":"uint256"}],"anonymous":false},{"type":"event","name":"EmergencyWithdrawal","inputs":[{"name":"to","type":"address","indexed":true,"internalType":"address"},{"name":"amount","type":"uint256","indexed":false,"internalType":"uint256"}],"anonymous":false},{"type":"event","name":"Frozen","inputs":[{"name":"status","type":"bool","indexed":false,"internalType":"bool"}],"anonymous":false},{"type":"event","name":"OwnershipTransferred","inputs":[{"name":"oldOwner","type":"address","indexed":true,"internalType":"address"},{"name":"newOwner","type":"address","indexed":true,"internalType":"address"}],"anonymous":false},{"type":"event","name":"PolicyUpdated","inputs":[{"name":"newDailyLimit","type":"uint256","indexed":false,"internalType":"uint256"}],"anonymous":false},{"type":"event","name":"Withdrawal","inputs":[{"name":"to","type":"address","indexed":true,"internalType":"address"},{"name":"amount","type":"uint256","indexed":false,"internalType":"uint256"}],"anonymous":false},{"type":"error","name":"ExceedsDailyLimit","inputs":[]},{"type":"error","name":"NotAllowlisted","inputs":[]},{"type":"error","name":"OnlyAgent","inputs":[]},{"type":"error","name":"OnlyOwner","inputs":[]},{"type":"error","name":"ReentrancyGuardReentrantCall","inputs":[]},{"type":"error","name":"TransferFailed","inputs":[]},{"type":"error","name":"VaultFrozen","inputs":[]},{"type":"error","name":"ZeroAddress","inputs":[]}],"bytecode":{"object":"0x608060405234801561000f575f5ffd5b506040516116be3803806116be833981810160405281019061003191906101d1565b60015f819055505f73ffffffffffffffffffffffffffffffffffffffff168273ffffffffffffffffffffffffffffffffffffffff160361009d576040517fd92e233d00000000000000000000000000000000000000000000000000000000815260040160405180910390fd5b3360015f6101000a81548173ffffffffffffffffffffffffffffffffffffffff021916908373ffffffffffffffffffffffffffffffffffffffff1602179055508160025f6101000a81548173ffffffffffffffffffffffffffffffffffffffff021916908373ffffffffffffffffffffffffffffffffffffffff160217905550806003819055506201518042610133919061023c565b600581905550505061026c565b5f5ffd5b5f73ffffffffffffffffffffffffffffffffffffffff82169050919050565b5f61016d82610144565b9050919050565b61017d81610163565b8114610187575f5ffd5b50565b5f8151905061019881610174565b92915050565b5f819050919050565b6101b08161019e565b81146101ba575f5ffd5b50565b5f815190506101cb816101a7565b92915050565b5f5f604083850312156101e7576101e6610140565b5b5f6101f48582860161018a565b9250506020610205858286016101bd565b9150509250929050565b7f4e487b71000000000000000000000000000000000000000000000000000000005f52601260045260245ffd5b5f6102468261019e565b91506102518361019e565b9250826102615761026061020f565b5b828204905092915050565b611445806102795f395ff3fe6080604052600436106100f6575f3560e01c8063a7cd52cb11610089578063f059cf2b11610058578063f059cf2b1461034f578063f2fde38b14610379578063f3fef3a3146103a1578063f5ff5c76146103c95761014b565b8063a7cd52cb1461029b578063b12527f8146102d7578063b20d30a9146102ff578063bcf685ed146103275761014b565b806367eeba0c116100c557806367eeba0c146101f75780637e932d32146102215780638da5cb5b1461024957806395ccea67146102735761014b565b8063054f7d9c1461014f57806312065fe0146101795780631259a5c8146101a35780635f74862c146101cd5761014b565b3661014b573373ffffffffffffffffffffffffffffffffffffffff167fe1fffcc4923d04b559f4d29a8bfc6cda04eb5b0d3c460751c2402c5c5cc9109c3460405161014191906110bb565b60405180910390a2005b5f5ffd5b34801561015a575f5ffd5b506101636103f3565b60405161017091906110ee565b60405180910390f35b348015610184575f5ffd5b5061018d610406565b60405161019a91906110bb565b60405180910390f35b3480156101ae575f5ffd5b506101b761040d565b6040516101c491906110bb565b60405180910390f35b3480156101d8575f5ffd5b506101e1610413565b6040516101ee91906110bb565b60405180910390f35b348015610202575f5ffd5b5061020b610464565b60405161021891906110bb565b60405180910390f35b34801561022c575f5ffd5b5061024760048036038101906102429190611135565b61046a565b005b348015610254575f5ffd5b5061025d610544565b60405161026a919061119f565b60405180910390f35b34801561027e575f5ffd5b506102996004803603810190610294919061120c565b610569565b005b3480156102a6575f5ffd5b506102c160048036038101906102bc919061124a565b610756565b6040516102ce91906110ee565b60405180910390f35b3480156102e2575f5ffd5b506102fd60048036038101906102f89190611275565b610773565b005b34801561030a575f5ffd5b50610325600480360381019061032091906112b3565b610904565b005b348015610332575f5ffd5b5061034d6004803603810190610348919061124a565b6109cb565b005b34801561035a575f5ffd5b50610363610b3c565b60405161037091906110bb565b60405180910390f35b348015610384575f5ffd5b5061039f600480360381019061039a919061124a565b610b42565b005b3480156103ac575f5ffd5b506103c760048036038101906103c2919061120c565b610cf0565b005b3480156103d4575f5ffd5b506103dd611031565b6040516103ea919061119f565b60405180910390f35b600260149054906101000a900460ff1681565b5f47905090565b60055481565b5f5f62015180426104249190611338565b905060055481111561043b57600354915050610461565b6004546003541161044c575f61045d565b60045460035461045c9190611368565b5b9150505b90565b60035481565b60015f9054906101000a900473ffffffffffffffffffffffffffffffffffffffff1673ffffffffffffffffffffffffffffffffffffffff163373ffffffffffffffffffffffffffffffffffffffff16146104f0576040517f5fc483c500000000000000000000000000000000000000000000000000000000815260040160405180910390fd5b80600260146101000a81548160ff0219169083151502179055507f59800d968fcce138300a0019410b4b75041610d65b3cdc5f31656b03ed14912e8160405161053991906110ee565b60405180910390a150565b60015f9054906101000a900473ffffffffffffffffffffffffffffffffffffffff1681565b60015f9054906101000a900473ffffffffffffffffffffffffffffffffffffffff1673ffffffffffffffffffffffffffffffffffffffff163373ffffffffffffffffffffffffffffffffffffffff16146105ef576040517f5fc483c500000000000000000000000000000000000000000000000000000000815260040160405180910390fd5b6105f7611056565b5f73ffffffffffffffffffffffffffffffffffffffff168273ffffffffffffffffffffffffffffffffffffffff160361065c576040517fd92e233d00000000000000000000000000000000000000000000000000000000815260040160405180910390fd5b5f8273ffffffffffffffffffffffffffffffffffffffff1682604051610681906113c8565b5f6040518083038185875af1925050503d805f81146106bb576040519150601f19603f3d011682016040523d82523d5f602084013e6106c0565b606091505b50509050806106fb576040517f90b8ec1800000000000000000000000000000000000000000000000000000000815260040160405180910390fd5b8273ffffffffffffffffffffffffffffffffffffffff167f23d6711a1d031134a36921253c75aa59e967d38e369ac625992824315e204f208360405161074191906110bb565b60405180910390a25061075261109a565b5050565b6006602052805f5260405f205f915054906101000a900460ff1681565b60015f9054906101000a900473ffffffffffffffffffffffffffffffffffffffff1673ffffffffffffffffffffffffffffffffffffffff163373ffffffffffffffffffffffffffffffffffffffff16146107f9576040517f5fc483c500000000000000000000000000000000000000000000000000000000815260040160405180910390fd5b5f73ffffffffffffffffffffffffffffffffffffffff168273ffffffffffffffffffffffffffffffffffffffff160361085e576040517fd92e233d00000000000000000000000000000000000000000000000000000000815260040160405180910390fd5b8060065f8473ffffffffffffffffffffffffffffffffffffffff1673ffffffffffffffffffffffffffffffffffffffff1681526020019081526020015f205f6101000a81548160ff0219169083151502179055508173ffffffffffffffffffffffffffffffffffffffff167f13518841ff4d3053cb7703afaa39b145c6331829b982d42f4d4fd7568b2e8e24826040516108f891906110ee565b60405180910390a25050565b60015f9054906101000a900473ffffffffffffffffffffffffffffffffffffffff1673ffffffffffffffffffffffffffffffffffffffff163373ffffffffffffffffffffffffffffffffffffffff161461098a576040517f5fc483c500000000000000000000000000000000000000000000000000000000815260040160405180910390fd5b806003819055507f912ce63c438aca9d2f50d1d12de5b42efbcc84ce223b08122e8c2e3c000ca1f8816040516109c091906110bb565b60405180910390a150565b60015f9054906101000a900473ffffffffffffffffffffffffffffffffffffffff1673ffffffffffffffffffffffffffffffffffffffff163373ffffffffffffffffffffffffffffffffffffffff1614610a51576040517f5fc483c500000000000000000000000000000000000000000000000000000000815260040160405180910390fd5b5f73ffffffffffffffffffffffffffffffffffffffff168173ffffffffffffffffffffffffffffffffffffffff1603610ab6576040517fd92e233d00000000000000000000000000000000000000000000000000000000815260040160405180910390fd5b8060025f6101000a81548173ffffffffffffffffffffffffffffffffffffffff021916908373ffffffffffffffffffffffffffffffffffffffff1602179055508073ffffffffffffffffffffffffffffffffffffffff167fe9f337c154e801e0f86b6bc993df9a2cd349bb210385592c7a52e38ea726334f60405160405180910390a250565b60045481565b60015f9054906101000a900473ffffffffffffffffffffffffffffffffffffffff1673ffffffffffffffffffffffffffffffffffffffff163373ffffffffffffffffffffffffffffffffffffffff1614610bc8576040517f5fc483c500000000000000000000000000000000000000000000000000000000815260040160405180910390fd5b5f73ffffffffffffffffffffffffffffffffffffffff168173ffffffffffffffffffffffffffffffffffffffff1603610c2d576040517fd92e233d00000000000000000000000000000000000000000000000000000000815260040160405180910390fd5b5f60015f9054906101000a900473ffffffffffffffffffffffffffffffffffffffff1690508160015f6101000a81548173ffffffffffffffffffffffffffffffffffffffff021916908373ffffffffffffffffffffffffffffffffffffffff1602179055508173ffffffffffffffffffffffffffffffffffffffff168173ffffffffffffffffffffffffffffffffffffffff167f8be0079c531659141344cd1fd0a4f28419497f9722a3daafe3b4186f6b6457e060405160405180910390a35050565b60025f9054906101000a900473ffffffffffffffffffffffffffffffffffffffff1673ffffffffffffffffffffffffffffffffffffffff163373ffffffffffffffffffffffffffffffffffffffff1614610d76576040517f7362044100000000000000000000000000000000000000000000000000000000815260040160405180910390fd5b600260149054906101000a900460ff1615610dbd576040517fa0822f8800000000000000000000000000000000000000000000000000000000815260040160405180910390fd5b610dc5611056565b5f73ffffffffffffffffffffffffffffffffffffffff168273ffffffffffffffffffffffffffffffffffffffff1603610e2a576040517fd92e233d00000000000000000000000000000000000000000000000000000000815260040160405180910390fd5b60065f8373ffffffffffffffffffffffffffffffffffffffff1673ffffffffffffffffffffffffffffffffffffffff1681526020019081526020015f205f9054906101000a900460ff16610eaa576040517f06fb10a900000000000000000000000000000000000000000000000000000000815260040160405180910390fd5b5f6201518042610eba9190611338565b9050600554811115610ed5575f600481905550806005819055505b60035482600454610ee691906113dc565b1115610f1e576040517f5602069400000000000000000000000000000000000000000000000000000000815260040160405180910390fd5b8160045f828254610f2f91906113dc565b925050819055505f8373ffffffffffffffffffffffffffffffffffffffff1683604051610f5b906113c8565b5f6040518083038185875af1925050503d805f8114610f95576040519150601f19603f3d011682016040523d82523d5f602084013e610f9a565b606091505b5050905080610fd5576040517f90b8ec1800000000000000000000000000000000000000000000000000000000815260040160405180910390fd5b8373ffffffffffffffffffffffffffffffffffffffff167f7fcf532c15f0a6db0bd6d0e038bea71d30d808c7d98cb3bf7268a95bf5081b658460405161101b91906110bb565b60405180910390a2505061102d61109a565b5050565b60025f9054906101000a900473ffffffffffffffffffffffffffffffffffffffff1681565b60025f5403611091576040517f3ee5aeb500000000000000000000000000000000000000000000000000000000815260040160405180910390fd5b60025f81905550565b60015f81905550565b5f819050919050565b6110b5816110a3565b82525050565b5f6020820190506110ce5f8301846110ac565b92915050565b5f8115159050919050565b6110e8816110d4565b82525050565b5f6020820190506111015f8301846110df565b92915050565b5f5ffd5b611114816110d4565b811461111e575f5ffd5b50565b5f8135905061112f8161110b565b92915050565b5f6020828403121561114a57611149611107565b5b5f61115784828501611121565b91505092915050565b5f73ffffffffffffffffffffffffffffffffffffffff82169050919050565b5f61118982611160565b9050919050565b6111998161117f565b82525050565b5f6020820190506111b25f830184611190565b92915050565b6111c18161117f565b81146111cb575f5ffd5b50565b5f813590506111dc816111b8565b92915050565b6111eb816110a3565b81146111f5575f5ffd5b50565b5f81359050611206816111e2565b92915050565b5f5f6040838503121561122257611221611107565b5b5f61122f858286016111ce565b9250506020611240858286016111f8565b9150509250929050565b5f6020828403121561125f5761125e611107565b5b5f61126c848285016111ce565b91505092915050565b5f5f6040838503121561128b5761128a611107565b5b5f611298858286016111ce565b92505060206112a985828601611121565b9150509250929050565b5f602082840312156112c8576112c7611107565b5b5f6112d5848285016111f8565b91505092915050565b7f4e487b71000000000000000000000000000000000000000000000000000000005f52601260045260245ffd5b7f4e487b71000000000000000000000000000000000000000000000000000000005f52601160045260245ffd5b5f611342826110a3565b915061134d836110a3565b92508261135d5761135c6112de565b5b828204905092915050565b5f611372826110a3565b915061137d836110a3565b92508282039050818111156113955761139461130b565b5b92915050565b5f81905092915050565b50565b5f6113b35f8361139b565b91506113be826113a5565b5f82019050919050565b5f6113d2826113a8565b9150819050919050565b5f6113e6826110a3565b91506113f1836110a3565b92508282019050808211156114095761140861130b565b5b9291505056fea26469706673582212209c70565ddd98989d1e5866325e0f05b7f0ef3be2329e90d5ae92672d75df2b3764736f6c634300081b0033","linkReferences":{}},"methodIdentifiers":{"agent()":"f5ff5c76","allowlist(address)":"a7cd52cb","dailyLimit()":"67eeba0c","emergencyWithdraw(address,uint256)":"95ccea67","frozen()":"054f7d9c","getBalance()":"12065fe0","getRemainingDaily()":"5f74862c","lastResetDay()":"1259a5c8","owner()":"8da5cb5b","setAgent(address)":"bcf685ed","setAllowlist(address,bool)":"b12527f8","setDailyLimit(uint256)":"b20d30a9","setFrozen(bool)":"7e932d32","spentToday()":"f059cf2b","transferOwnership(address)":"f2fde38b","withdraw(address,uint256)":"f3fef3a3"},"id":22}